{
  "transactions": [
    {
      "hash": "0x2e210374ceeb3e6c5c98635ae1fcc162208d32c8aeff32b464adb0fa1d7791bb",
      "transactionType": "CREATE",
      "contractName": "MockERC20",
      "contractAddress": "0x7ce8535d4fd28de2d929b03a7b6d9d6045f36872",
      "function": null,
      "arguments": [
        "JIT Test Token A",
        "JTA",
        "18"
      ],
      "transaction": {
        "from": "0xf5ac3902153cd6bf53e8e7474380c3b86e8afa37",
        "to": null,
        "gas": "0xed5ab",
        "value": "0x0",
        "input": "0x60e060405234801561000f575f80fd5b50604051610f62380380610f6283398101604081905261002e916101a1565b8282825f61003c84826102a2565b50600161004983826102a2565b5060ff81166080524660a05261005d61006c565b60c052506103cd945050505050565b5f7f8b73c3c69bb8fe3d512ecc4cf759cc79239f7b179b0ffacaa9a75d522b39400f5f60405161009c919061035c565b6040805191829003822060208301939093528101919091527fc89efdaa54c0f20c7adf612882df0950f5a951637e0307cdcb4c672f298b8bc660608201524660808201523060a082015260c00160405160208183030381529060405280519060200120905090565b634e487b7160e01b5f52604160045260245ffd5b5f82601f830112610127575f80fd5b81516001600160401b0381111561014057610140610104565b604051601f8201601f19908116603f011681016001600160401b038111828210171561016e5761016e610104565b604052818152838201602001851015610185575f80fd5b8160208501602083015e5f918101602001919091529392505050565b5f805f606084860312156101b3575f80fd5b83516001600160401b038111156101c8575f80fd5b6101d486828701610118565b602086015190945090506001600160401b038111156101f1575f80fd5b6101fd86828701610118565b925050604084015160ff81168114610213575f80fd5b809150509250925092565b600181811c9082168061023257607f821691505b60208210810361025057634e487b7160e01b5f52602260045260245ffd5b50919050565b601f82111561029d57805f5260205f20601f840160051c8101602085101561027b5750805b601f840160051c820191505b8181101561029a575f8155600101610287565b50505b505050565b81516001600160401b038111156102bb576102bb610104565b6102cf816102c9845461021e565b84610256565b6020601f821160018114610301575f83156102ea5750848201515b5f19600385901b1c1916600184901b17845561029a565b5f84815260208120601f198516915b828110156103305787850151825560209485019460019092019101610310565b508482101561034d57868401515f19600387901b60f8161c191681555b50505050600190811b01905550565b5f8083546103698161021e565b6001821680156103805760018114610395576103c2565b60ff19831686528115158202860193506103c2565b865f5260205f205f5b838110156103ba5781548882015260019091019060200161039e565b505081860193505b509195945050505050565b60805160a05160c051610b6b6103f75f395f61045c01525f61042701525f6101590152610b6b5ff3fe608060405234801561000f575f80fd5b50600436106100e5575f3560e01c806370a08231116100885780639dc29fac116100635780639dc29fac146101f0578063a9059cbb14610203578063d505accf14610216578063dd62ed3e14610229575f80fd5b806370a08231146101aa5780637ecebe00146101c957806395d89b41146101e8575f80fd5b806323b872dd116100c357806323b872dd14610141578063313ce567146101545780633644e5151461018d57806340c10f1914610195575f80fd5b806306fdde03146100e9578063095ea7b31461010757806318160ddd1461012a575b5f80fd5b6100f1610253565b6040516100fe9190610897565b60405180910390f35b61011a6101153660046108e7565b6102de565b60405190151581526020016100fe565b61013360025481565b6040519081526020016100fe565b61011a61014f36600461090f565b61034a565b61017b7f000000000000000000000000000000000000000000000000000000000000000081565b60405160ff90911681526020016100fe565b610133610424565b6101a86101a33660046108e7565b61047e565b005b6101336101b8366004610949565b60036020525f908152604090205481565b6101336101d7366004610949565b60056020525f908152604090205481565b6100f161048c565b6101a86101fe3660046108e7565b610499565b61011a6102113660046108e7565b6104a3565b6101a8610224366004610969565b610506565b6101336102373660046109d6565b600460209081525f928352604080842090915290825290205481565b5f805461025f90610a07565b80601f016020809104026020016040519081016040528092919081815260200182805461028b90610a07565b80156102d65780601f106102ad576101008083540402835291602001916102d6565b820191905f5260205f20905b8154815290600101906020018083116102b957829003601f168201915b505050505081565b335f8181526004602090815260408083206001600160a01b038716808552925280832085905551919290917f8c5be1e5ebec7d5bd14f71427d1e84f3dd0314c0f7b2291e5b200ac8c7c3b925906103389086815260200190565b60405180910390a35060015b92915050565b6001600160a01b0383165f9081526004602090815260408083203384529091528120545f1981146103a35761037f8382610a53565b6001600160a01b0386165f9081526004602090815260408083203384529091529020555b6001600160a01b0385165f90815260036020526040812080548592906103ca908490610a53565b90915550506001600160a01b038085165f81815260036020526040908190208054870190555190918716905f80516020610b16833981519152906104119087815260200190565b60405180910390a3506001949350505050565b5f7f0000000000000000000000000000000000000000000000000000000000000000461461045957610454610749565b905090565b507f000000000000000000000000000000000000000000000000000000000000000090565b61048882826107e1565b5050565b6001805461025f90610a07565b6104888282610838565b335f908152600360205260408120805483919083906104c3908490610a53565b90915550506001600160a01b0383165f81815260036020526040908190208054850190555133905f80516020610b16833981519152906103389086815260200190565b4284101561055b5760405162461bcd60e51b815260206004820152601760248201527f5045524d49545f444541444c494e455f4558504952454400000000000000000060448201526064015b60405180910390fd5b5f6001610566610424565b6001600160a01b038a81165f8181526005602090815260409182902080546001810190915582517f6e71edae12b1b97f4d1f60370fef10105fa2faae0126114a169c64845d6126c98184015280840194909452938d166060840152608083018c905260a083019390935260c08083018b90528151808403909101815260e08301909152805192019190912061190160f01b6101008301526101028201929092526101228101919091526101420160408051601f1981840301815282825280516020918201205f84529083018083525260ff871690820152606081018590526080810184905260a0016020604051602081039080840390855afa15801561066e573d5f803e3d5ffd5b5050604051601f1901519150506001600160a01b038116158015906106a45750876001600160a01b0316816001600160a01b0316145b6106e15760405162461bcd60e51b815260206004820152600e60248201526d24a72b20a624a22fa9a4a3a722a960911b6044820152606401610552565b6001600160a01b039081165f9081526004602090815260408083208a8516808552908352928190208990555188815291928a16917f8c5be1e5ebec7d5bd14f71427d1e84f3dd0314c0f7b2291e5b200ac8c7c3b925910160405180910390a350505050505050565b5f7f8b73c3c69bb8fe3d512ecc4cf759cc79239f7b179b0ffacaa9a75d522b39400f5f6040516107799190610a66565b6040805191829003822060208301939093528101919091527fc89efdaa54c0f20c7adf612882df0950f5a951637e0307cdcb4c672f298b8bc660608201524660808201523060a082015260c00160405160208183030381529060405280519060200120905090565b8060025f8282546107f29190610b02565b90915550506001600160a01b0382165f818152600360209081526040808320805486019055518481525f80516020610b1683398151915291015b60405180910390a35050565b6001600160a01b0382165f908152600360205260408120805483929061085f908490610a53565b90915550506002805482900390556040518181525f906001600160a01b038416905f80516020610b168339815191529060200161082c565b602081525f82518060208401528060208501604085015e5f604082850101526040601f19601f83011684010191505092915050565b80356001600160a01b03811681146108e2575f80fd5b919050565b5f80604083850312156108f8575f80fd5b610901836108cc565b946020939093013593505050565b5f805f60608486031215610921575f80fd5b61092a846108cc565b9250610938602085016108cc565b929592945050506040919091013590565b5f60208284031215610959575f80fd5b610962826108cc565b9392505050565b5f805f805f805f60e0888a03121561097f575f80fd5b610988886108cc565b9650610996602089016108cc565b95506040880135945060608801359350608088013560ff811681146109b9575f80fd5b9699959850939692959460a0840135945060c09093013592915050565b5f80604083850312156109e7575f80fd5b6109f0836108cc565b91506109fe602084016108cc565b90509250929050565b600181811c90821680610a1b57607f821691505b602082108103610a3957634e487b7160e01b5f52602260045260245ffd5b50919050565b634e487b7160e01b5f52601160045260245ffd5b8181038181111561034457610344610a3f565b5f8083545f8160011c90506001821680610a8157607f821691505b602082108103610a9f57634e487b7160e01b5f52602260045260245ffd5b808015610ab35760018114610ac857610af6565b60ff1984168752821515830287019450610af6565b5f888152602090205f5b84811015610aee57815489820152600190910190602001610ad2565b505082870194505b50929695505050505050565b8082018082111561034457610344610a3f56feddf252ad1be2c89b69c2b068fc378daa952ba7f163c4a11628f55a4df523b3efa26469706673582212209155ef4ae1e0080436f4701848c0483e1076f5bc57542edcbf14f7f687abd55164736f6c634300081a0033000000000000000000000000000000000000000000000000000000000000006000000000000000000000000000000000000000000000000000000000000000a0000000000000000000000000000000000000000000000000000000000000001200000000000000000000000000000000000000000000000000000000000000104a4954205465737420546f6b656e20410000000000000000000000000000000000000000000000000000000000000000000000000000000000000000000000034a54410000000000000000000000000000000000000000000000000000000000",
        "nonce": "0x1",
        "chainId": "0xaa36a7"
      },
      "additionalContracts": [],
      "isFixedGasLimit": false
    },
    {
      "hash": "0x4997407fde7997b17d80f6288432435717fb6930430a076d3bb3675f448895c7",
      "transactionType": "CREATE",
      "contractName": "MockERC20",
      "contractAddress": "0x995b4cd6cc4bb7985b3869dc8edbd32fcd38a892",
      "function": null,
      "arguments": [
        "JIT Test Token B",
        "JTB",
        "18"
      ],
      "transaction": {
        "from": "0xf5ac3902153cd6bf53e8e7474380c3b86e8afa37",
        "to": null,
        "gas": "0xed5ab",
        "value": "0x0",
        "input": "0x60e060405234801561000f575f80fd5b50604051610f62380380610f6283398101604081905261002e916101a1565b8282825f61003c84826102a2565b50600161004983826102a2565b5060ff81166080524660a05261005d61006c565b60c052506103cd945050505050565b5f7f8b73c3c69bb8fe3d512ecc4cf759cc79239f7b179b0ffacaa9a75d522b39400f5f60405161009c919061035c565b6040805191829003822060208301939093528101919091527fc89efdaa54c0f20c7adf612882df0950f5a951637e0307cdcb4c672f298b8bc660608201524660808201523060a082015260c00160405160208183030381529060405280519060200120905090565b634e487b7160e01b5f52604160045260245ffd5b5f82601f830112610127575f80fd5b81516001600160401b0381111561014057610140610104565b604051601f8201601f19908116603f011681016001600160401b038111828210171561016e5761016e610104565b604052818152838201602001851015610185575f80fd5b8160208501602083015e5f918101602001919091529392505050565b5f805f606084860312156101b3575f80fd5b83516001600160401b038111156101c8575f80fd5b6101d486828701610118565b602086015190945090506001600160401b038111156101f1575f80fd5b6101fd86828701610118565b925050604084015160ff81168114610213575f80fd5b809150509250925092565b600181811c9082168061023257607f821691505b60208210810361025057634e487b7160e01b5f52602260045260245ffd5b50919050565b601f82111561029d57805f5260205f20601f840160051c8101602085101561027b5750805b601f840160051c820191505b8181101561029a575f8155600101610287565b50505b505050565b81516001600160401b038111156102bb576102bb610104565b6102cf816102c9845461021e565b84610256565b6020601f821160018114610301575f83156102ea5750848201515b5f19600385901b1c1916600184901b17845561029a565b5f84815260208120601f198516915b828110156103305787850151825560209485019460019092019101610310565b508482101561034d57868401515f19600387901b60f8161c191681555b50505050600190811b01905550565b5f8083546103698161021e565b6001821680156103805760018114610395576103c2565b60ff19831686528115158202860193506103c2565b865f5260205f205f5b838110156103ba5781548882015260019091019060200161039e565b505081860193505b509195945050505050565b60805160a05160c051610b6b6103f75f395f61045c01525f61042701525f6101590152610b6b5ff3fe608060405234801561000f575f80fd5b50600436106100e5575f3560e01c806370a08231116100885780639dc29fac116100635780639dc29fac146101f0578063a9059cbb14610203578063d505accf14610216578063dd62ed3e14610229575f80fd5b806370a08231146101aa5780637ecebe00146101c957806395d89b41146101e8575f80fd5b806323b872dd116100c357806323b872dd14610141578063313ce567146101545780633644e5151461018d57806340c10f1914610195575f80fd5b806306fdde03146100e9578063095ea7b31461010757806318160ddd1461012a575b5f80fd5b6100f1610253565b6040516100fe9190610897565b60405180910390f35b61011a6101153660046108e7565b6102de565b60405190151581526020016100fe565b61013360025481565b6040519081526020016100fe565b61011a61014f36600461090f565b61034a565b61017b7f000000000000000000000000000000000000000000000000000000000000000081565b60405160ff90911681526020016100fe565b610133610424565b6101a86101a33660046108e7565b61047e565b005b6101336101b8366004610949565b60036020525f908152604090205481565b6101336101d7366004610949565b60056020525f908152604090205481565b6100f161048c565b6101a86101fe3660046108e7565b610499565b61011a6102113660046108e7565b6104a3565b6101a8610224366004610969565b610506565b6101336102373660046109d6565b600460209081525f928352604080842090915290825290205481565b5f805461025f90610a07565b80601f016020809104026020016040519081016040528092919081815260200182805461028b90610a07565b80156102d65780601f106102ad576101008083540402835291602001916102d6565b820191905f5260205f20905b8154815290600101906020018083116102b957829003601f168201915b505050505081565b335f8181526004602090815260408083206001600160a01b038716808552925280832085905551919290917f8c5be1e5ebec7d5bd14f71427d1e84f3dd0314c0f7b2291e5b200ac8c7c3b925906103389086815260200190565b60405180910390a35060015b92915050565b6001600160a01b0383165f9081526004602090815260408083203384529091528120545f1981146103a35761037f8382610a53565b6001600160a01b0386165f9081526004602090815260408083203384529091529020555b6001600160a01b0385165f90815260036020526040812080548592906103ca908490610a53565b90915550506001600160a01b038085165f81815260036020526040908190208054870190555190918716905f80516020610b16833981519152906104119087815260200190565b60405180910390a3506001949350505050565b5f7f0000000000000000000000000000000000000000000000000000000000000000461461045957610454610749565b905090565b507f000000000000000000000000000000000000000000000000000000000000000090565b61048882826107e1565b5050565b6001805461025f90610a07565b6104888282610838565b335f908152600360205260408120805483919083906104c3908490610a53565b90915550506001600160a01b0383165f81815260036020526040908190208054850190555133905f80516020610b16833981519152906103389086815260200190565b4284101561055b5760405162461bcd60e51b815260206004820152601760248201527f5045524d49545f444541444c494e455f4558504952454400000000000000000060448201526064015b60405180910390fd5b5f6001610566610424565b6001600160a01b038a81165f8181526005602090815260409182902080546001810190915582517f6e71edae12b1b97f4d1f60370fef10105fa2faae0126114a169c64845d6126c98184015280840194909452938d166060840152608083018c905260a083019390935260c08083018b90528151808403909101815260e08301909152805192019190912061190160f01b6101008301526101028201929092526101228101919091526101420160408051601f1981840301815282825280516020918201205f84529083018083525260ff871690820152606081018590526080810184905260a0016020604051602081039080840390855afa15801561066e573d5f803e3d5ffd5b5050604051601f1901519150506001600160a01b038116158015906106a45750876001600160a01b0316816001600160a01b0316145b6106e15760405162461bcd60e51b815260206004820152600e60248201526d24a72b20a624a22fa9a4a3a722a960911b6044820152606401610552565b6001600160a01b039081165f9081526004602090815260408083208a8516808552908352928190208990555188815291928a16917f8c5be1e5ebec7d5bd14f71427d1e84f3dd0314c0f7b2291e5b200ac8c7c3b925910160405180910390a350505050505050565b5f7f8b73c3c69bb8fe3d512ecc4cf759cc79239f7b179b0ffacaa9a75d522b39400f5f6040516107799190610a66565b6040805191829003822060208301939093528101919091527fc89efdaa54c0f20c7adf612882df0950f5a951637e0307cdcb4c672f298b8bc660608201524660808201523060a082015260c00160405160208183030381529060405280519060200120905090565b8060025f8282546107f29190610b02565b90915550506001600160a01b0382165f818152600360209081526040808320805486019055518481525f80516020610b1683398151915291015b60405180910390a35050565b6001600160a01b0382165f908152600360205260408120805483929061085f908490610a53565b90915550506002805482900390556040518181525f906001600160a01b038416905f80516020610b168339815191529060200161082c565b602081525f82518060208401528060208501604085015e5f604082850101526040601f19601f83011684010191505092915050565b80356001600160a01b03811681146108e2575f80fd5b919050565b5f80604083850312156108f8575f80fd5b610901836108cc565b946020939093013593505050565b5f805f60608486031215610921575f80fd5b61092a846108cc565b9250610938602085016108cc565b929592945050506040919091013590565b5f60208284031215610959575f80fd5b610962826108cc565b9392505050565b5f805f805f805f60e0888a03121561097f575f80fd5b610988886108cc565b9650610996602089016108cc565b95506040880135945060608801359350608088013560ff811681146109b9575f80fd5b9699959850939692959460a0840135945060c09093013592915050565b5f80604083850312156109e7575f80fd5b6109f0836108cc565b91506109fe602084016108cc565b90509250929050565b600181811c90821680610a1b57607f821691505b602082108103610a3957634e487b7160e01b5f52602260045260245ffd5b50919050565b634e487b7160e01b5f52601160045260245ffd5b8181038181111561034457610344610a3f565b5f8083545f8160011c90506001821680610a8157607f821691505b602082108103610a9f57634e487b7160e01b5f52602260045260245ffd5b808015610ab35760018114610ac857610af6565b60ff1984168752821515830287019450610af6565b5f888152602090205f5b84811015610aee57815489820152600190910190602001610ad2565b505082870194505b50929695505050505050565b8082018082111561034457610344610a3f56feddf252ad1be2c89b69c2b068fc378daa952ba7f163c4a11628f55a4df523b3efa26469706673582212209155ef4ae1e0080436f4701848c0483e1076f5bc57542edcbf14f7f687abd55164736f6c634300081a0033000000000000000000000000000000000000000000000000000000000000006000000000000000000000000000000000000000000000000000000000000000a0000000000000000000000000000000000000000000000000000000000000001200000000000000000000000000000000000000000000000000000000000000104a4954205465737420546f6b656e20420000000000000000000000000000000000000000000000000000000000000000000000000000000000000000000000034a54420000000000000000000000000000000000000000000000000000000000",
        "nonce": "0x2",
        "chainId": "0xaa36a7"
      },
      "additionalContracts": [],
      "isFixedGasLimit": false
    },
    {
      "hash": "0xdf024d17f67436d4ef284d69b8e9b4e6e806e445700e699e2d893449891e66b1",
      "transactionType": "CALL",
      "contractName": "MockERC20",
      "contractAddress": "0x7ce8535d4fd28de2d929b03a7b6d9d6045f36872",
      "function": "mint(address,uint256)",
      "arguments": [
        "0xf5Ac3902153CD6BF53E8e7474380C3b86e8afA37",
        "1000000000000000000000000"
      ],
      "transaction": {
        "from": "0xf5ac3902153cd6bf53e8e7474380c3b86e8afa37",
        "to": "0x7ce8535d4fd28de2d929b03a7b6d9d6045f36872",
        "gas": "0x170b2",
        "value": "0x0",
        "input": "0x40c10f19000000000000000000000000f5ac3902153cd6bf53e8e7474380c3b86e8afa3700000000000000000000000000000000000000000000d3c21bcecceda1000000",
        "nonce": "0x3",
        "chainId": "0xaa36a7"
      },
      "additionalContracts": [],
      "isFixedGasLimit": false
    },
    {
      "hash": "0x195e0f77bf6602039adb6f6dcc0db75c699f2e8b21f835b9f641d8a230e24cfa",
      "transactionType": "CALL",
      "contractName": "MockERC20",
      "contractAddress": "0x995b4cd6cc4bb7985b3869dc8edbd32fcd38a892",
      "function": "mint(address,uint256)",
      "arguments": [
        "0xf5Ac3902153CD6BF53E8e7474380C3b86e8afA37",
        "1000000000000000000000000"
      ],
      "transaction": {
        "from": "0xf5ac3902153cd6bf53e8e7474380c3b86e8afa37",
        "to": "0x995b4cd6cc4bb7985b3869dc8edbd32fcd38a892",
        "gas": "0x170b2",
        "value": "0x0",
        "input": "0x40c10f19000000000000000000000000f5ac3902153cd6bf53e8e7474380c3b86e8afa3700000000000000000000000000000000000000000000d3c21bcecceda1000000",
        "nonce": "0x4",
        "chainId": "0xaa36a7"
      },
      "additionalContracts": [],
      "isFixedGasLimit": false
    },
    {
      "hash": "0x72a7a3f16167557471e7e3cf77e59c66231164000a995a1113fe2fcf9e349012",
      "transactionType": "CREATE",
      "contractName": "PoolModifyLiquidityTest",
      "contractAddress": "0xc76480a173321f33cf976d0355df8ecc8e22b4ff",
      "function": null,
      "arguments": [
        "0xE03A1074c86CFeDd5C142C4F04F1a1536e203543"
      ],
      "transaction": {
        "from": "0xf5ac3902153cd6bf53e8e7474380c3b86e8afa37",
        "to": null,
        "gas": "0x1970f9",
        "value": "0x0",
        "input": "0x60a0604052348015600e575f80fd5b50604051611703380380611703833981016040819052602b91603b565b6001600160a01b03166080526066565b5f60208284031215604a575f80fd5b81516001600160a01b0381168114605f575f80fd5b9392505050565b60805161163a6100c95f395f818160790152818160f50152818161022d01528181610294015281816102c501528181610390015281816104fa01528181610550015281816105bf015281816106100152818161078501526107b8015261163a5ff3fe60806040526004361061003e575f3560e01c80630a5b11e414610042578063481c6a75146100685780635a6bcfda146100b357806391dd7346146100c6575b5f80fd5b61005561005036600461108b565b6100f2565b6040519081526020015b60405180910390f35b348015610073575f80fd5b5061009b7f000000000000000000000000000000000000000000000000000000000000000081565b6040516001600160a01b03909116815260200161005f565b6100556100c1366004611111565b61020a565b3480156100d1575f80fd5b506100e56100e036600461116e565b610220565b60405161005f9190611208565b5f7f00000000000000000000000000000000000000000000000000000000000000006001600160a01b03166348c894916040518060c00160405280336001600160a01b03168152602001898152602001888152602001878152602001861515815260200185151581525060405160200161016c9190611264565b6040516020818303038152906040526040518263ffffffff1660e01b81526004016101979190611208565b5f604051808303815f875af11580156101b2573d5f803e3d5ffd5b505050506040513d5f823e601f3d908101601f191682016040526101d99190810190611300565b8060200190518101906101ec9190611374565b9050478015610200576102005f3383610662565b5095945050505050565b5f6102188484845f806100f2565b949350505050565b6060336001600160a01b037f00000000000000000000000000000000000000000000000000000000000000001614610256575f80fd5b5f6102638385018561138b565b90505f6102be610278836020015160a0902090565b6040840151805160208201516060909201516001600160a01b037f0000000000000000000000000000000000000000000000000000000000000000169392309291610707565b505090505f7f00000000000000000000000000000000000000000000000000000000000000006001600160a01b0316635a6bcfda8460200151856040015186606001516040518463ffffffff1660e01b815260040161031f93929190611452565b60408051808303815f875af115801561033a573d5f803e3d5ffd5b505050506040513d601f19601f8201168201806040525081019061035e91906114a1565b5090505f6103ba610374856020015160a0902090565b6040860151805160208201516060909201516001600160a01b037f0000000000000000000000000000000000000000000000000000000000000000169392309291610707565b505090505f6103d485602001515f0151865f01513061075e565b925050505f6103ef866020015160200151875f01513061075e565b9250505082600f0b86604001516040015186600f0b61040e91906114d7565b1461045f5760405162461bcd60e51b815260206004820152601a60248201527f6c6971756964697479206368616e676520696e636f7272656374000000000000604482015260640160405180910390fd5b5f86604001516040015112156104a7575f82138061047c57505f81135b610488576104886114fe565b5f82128061049557505f81125b156104a2576104a26114fe565b6104ea565b5f86604001516040015113156104ea575f8212806104c457505f81125b6104d0576104d06114fe565b5f8213806104dd57505f81135b156104ea576104ea6114fe565b5f821215610540578551610540907f00000000000000000000000000000000000000000000000000000000000000009061052385611512565b60808a015160208b0151516001600160a01b0316939291906107ea565b5f811215610598578551610598907f00000000000000000000000000000000000000000000000000000000000000009061057984611512565b60808a01516020808c015101516001600160a01b0316939291906107ea565b5f8213156105e757855160a08701516020880151516105e7926001600160a01b03909116917f000000000000000000000000000000000000000000000000000000000000000091908690610ab6565b5f81131561063857855160a08701516020808901510151610638926001600160a01b03909116917f000000000000000000000000000000000000000000000000000000000000000091908590610ab6565b60408051602081018690520160405160208183030381529060405296505050505050505b92915050565b5f6001600160a01b038416610697575f805f8085875af190508061069257610692835f633d2cec6f60e21b610b88565b610701565b60405163a9059cbb60e01b81526001600160a01b038416600482015282602482015260205f6044835f895af13d15601f3d1160015f511416171691505f81525f60208201525f60408201525080610701576107018463a9059cbb60e01b633c9fd93960e21b610b88565b50505050565b60408051602681018390526006810184905260038101859052858152603a600c8201205f92820183905260208201839052908290528190819061074b8a8a83610c00565b919c909b50909950975050505050505050565b5f80806107746001600160a01b03871686610ca3565b92506107a96001600160a01b0387167f0000000000000000000000000000000000000000000000000000000000000000610ca3565b91506107df6001600160a01b037f0000000000000000000000000000000000000000000000000000000000000000168588610d32565b905093509350939050565b801561087f57836001600160a01b031663f5298aca84610819886001600160a01b03166001600160a01b031690565b6040516001600160e01b031960e085901b1681526001600160a01b0390921660048301526024820152604481018590526064015b5f604051808303815f87803b158015610864575f80fd5b505af1158015610876573d5f803e3d5ffd5b50505050610aaf565b6001600160a01b0385166108f657836001600160a01b03166311da60b4836040518263ffffffff1660e01b815260040160206040518083038185885af11580156108cb573d5f803e3d5ffd5b50505050506040513d601f19601f820116820180604052508101906108f09190611374565b50610aaf565b604051632961046560e21b81526001600160a01b03868116600483015285169063a5841194906024015f604051808303815f87803b158015610936575f80fd5b505af1158015610948573d5f803e3d5ffd5b505050506001600160a01b03831630146109da576040516323b872dd60e01b81526001600160a01b0384811660048301528581166024830152604482018490528616906323b872dd906064016020604051808303815f875af11580156109b0573d5f803e3d5ffd5b505050506040513d601f19601f820116820180604052508101906109d4919061152c565b50610a4c565b60405163a9059cbb60e01b81526001600160a01b0385811660048301526024820184905286169063a9059cbb906044016020604051808303815f875af1158015610a26573d5f803e3d5ffd5b505050506040513d601f19601f82011682018060405250810190610a4a919061152c565b505b836001600160a01b03166311da60b46040518163ffffffff1660e01b81526004016020604051808303815f875af1158015610a89573d5f803e3d5ffd5b505050506040513d601f19601f82011682018060405250810190610aad9190611374565b505b5050505050565b80610af857604051630b0d9c0960e01b81526001600160a01b038681166004830152848116602483015260448201849052851690630b0d9c099060640161084d565b836001600160a01b031663156e29f684610b21886001600160a01b03166001600160a01b031690565b6040516001600160e01b031960e085901b1681526001600160a01b0390921660048301526024820152604481018590526064015f604051808303815f87803b158015610b6b575f80fd5b505af1158015610b7d573d5f803e3d5ffd5b505050505050505050565b6040516390bfb86560e01b8082526001600160a01b03851660048301526001600160e01b031984166024830152608060448301526020601f3d018190040260a0810160648401523d608484015290913d5f60a483013e60048260a4018201526001600160e01b031984168260c4018201528160e40181fd5b5f805f80610c0e8686610dc9565b604051631afeb18d60e11b815260048101829052600360248201529091505f906001600160a01b038916906335fd631a906044015f60405180830381865afa158015610c5c573d5f803e3d5ffd5b505050506040513d5f823e601f3d908101601f19168201604052610c839190810190611547565b60208101516040820151606090920151909a919950975095505050505050565b5f6001600160a01b038316610cc357506001600160a01b0381163161065c565b6040516370a0823160e01b81526001600160a01b0383811660048301528416906370a0823190602401602060405180830381865afa158015610d07573d5f803e3d5ffd5b505050506040513d601f19601f82011682018060405250810190610d2b9190611374565b905061065c565b5f806001600160a01b0384165f526001600160a01b03831660205260405f209050846001600160a01b031663f135baaa826040518263ffffffff1660e01b8152600401610d8191815260200190565b602060405180830381865afa158015610d9c573d5f803e3d5ffd5b505050506040513d601f19601f82011682018060405250810190610dc09190611374565b95945050505050565b5f80610dd484610e19565b90505f610de26006836115f1565b6040805160208101879052908101829052909150606001604051602081830303815290604052805190602001209250505092915050565b6040515f90610e38908390600690602001918252602082015260400190565b604051602081830303815290604052805190602001209050919050565b634e487b7160e01b5f52604160045260245ffd5b60405160c081016001600160401b0381118282101715610e8b57610e8b610e55565b60405290565b604051601f8201601f191681016001600160401b0381118282101715610eb957610eb9610e55565b604052919050565b6001600160a01b0381168114610ed5575f80fd5b50565b8035600281900b8114610ee9575f80fd5b919050565b5f60a08284031215610efe575f80fd5b60405160a081016001600160401b0381118282101715610f2057610f20610e55565b6040529050808235610f3181610ec1565b81526020830135610f4181610ec1565b6020820152604083013562ffffff81168114610f5b575f80fd5b6040820152610f6c60608401610ed8565b60608201526080830135610f7f81610ec1565b6080919091015292915050565b5f60808284031215610f9c575f80fd5b604051608081016001600160401b0381118282101715610fbe57610fbe610e55565b604052905080610fcd83610ed8565b8152610fdb60208401610ed8565b602082015260408301356040820152606083013560608201525092915050565b5f6001600160401b0382111561101357611013610e55565b50601f01601f191660200190565b5f82601f830112611030575f80fd5b813561104361103e82610ffb565b610e91565b818152846020838601011115611057575f80fd5b816020850160208301375f918101602001919091529392505050565b8015158114610ed5575f80fd5b8035610ee981611073565b5f805f805f61018086880312156110a0575f80fd5b6110aa8787610eee565b94506110b98760a08801610f8c565b93506101208601356001600160401b038111156110d4575f80fd5b6110e088828901611021565b9350506101408601356110f281611073565b915061016086013561110381611073565b809150509295509295909350565b5f805f6101408486031215611124575f80fd5b61112e8585610eee565b925061113d8560a08601610f8c565b91506101208401356001600160401b03811115611158575f80fd5b61116486828701611021565b9150509250925092565b5f806020838503121561117f575f80fd5b82356001600160401b03811115611194575f80fd5b8301601f810185136111a4575f80fd5b80356001600160401b038111156111b9575f80fd5b8560208284010111156111ca575f80fd5b6020919091019590945092505050565b5f81518084528060208401602086015e5f602082860101526020601f19601f83011685010191505092915050565b602081525f61121a60208301846111da565b9392505050565b80516001600160a01b03908116835260208083015182169084015260408083015162ffffff169084015260608083015160020b9084015260809182015116910152565b602080825282516001600160a01b0316828201528201515f9061128a6040840182611221565b506040838101518051600290810b60e08601526020820151900b610100850152908101516101208401526060908101516101408401528301516101a06101608401526112da6101c08401826111da565b90506080840151151561018084015260a084015115156101a08401528091505092915050565b5f60208284031215611310575f80fd5b81516001600160401b03811115611325575f80fd5b8201601f81018413611335575f80fd5b805161134361103e82610ffb565b818152856020838501011115611357575f80fd5b8160208401602083015e5f91810160200191909152949350505050565b5f60208284031215611384575f80fd5b5051919050565b5f6020828403121561139b575f80fd5b81356001600160401b038111156113b0575f80fd5b82016101a081850312156113c2575f80fd5b6113ca610e69565b81356113d581610ec1565b81526113e48560208401610eee565b60208201526113f68560c08401610f8c565b60408201526101408201356001600160401b03811115611414575f80fd5b61142086828501611021565b6060830152506114336101608301611080565b60808201526114456101808301611080565b60a0820152949350505050565b61145c8185611221565b8251600290810b60a08301526020840151900b60c0820152604083015160e082015260608301516101008201526101406101208201525f610dc06101408301846111da565b5f80604083850312156114b2575f80fd5b505080516020909101519092909150565b634e487b7160e01b5f52601160045260245ffd5b8082018281125f8312801582168215821617156114f6576114f66114c3565b505092915050565b634e487b7160e01b5f52600160045260245ffd5b5f600160ff1b8201611526576115266114c3565b505f0390565b5f6020828403121561153c575f80fd5b815161121a81611073565b5f60208284031215611557575f80fd5b81516001600160401b0381111561156c575f80fd5b8201601f8101841361157c575f80fd5b80516001600160401b0381111561159557611595610e55565b8060051b6115a560208201610e91565b918252602081840181019290810190878411156115c0575f80fd5b6020850194505b838510156115e6578451808352602095860195909350909101906115c7565b979650505050505050565b8082018082111561065c5761065c6114c356fea2646970667358221220928a7ea99376e118b663899b2687d79b72b3fbd96eba869911285871a31dd7f264736f6c634300081a0033000000000000000000000000e03a1074c86cfedd5c142c4f04f1a1536e203543",
        "nonce": "0x5",
        "chainId": "0xaa36a7"
      },
      "additionalContracts": [],
      "isFixedGasLimit": false
    },
    {
      "hash": "0xafe7448544ed5d077bd193280ab391926dbc1b4230333c111fa9c36e27883e2f",
      "transactionType": "CALL",
      "contractName": "MockERC20",
      "contractAddress": "0x7ce8535d4fd28de2d929b03a7b6d9d6045f36872",
      "function": "approve(address,uint256)",
      "arguments": [
        "0xC76480A173321F33CF976D0355DF8ECC8e22B4ff",
        "115792089237316195423570985008687907853269984665640564039457584007913129639935"
      ],
      "transaction": {
        "from": "0xf5ac3902153cd6bf53e8e7474380c3b86e8afa37",
        "to": "0x7ce8535d4fd28de2d929b03a7b6d9d6045f36872",
        "gas": "0xfad1",
        "value": "0x0",
        "input": "0x095ea7b3000000000000000000000000c76480a173321f33cf976d0355df8ecc8e22b4ffffffffffffffffffffffffffffffffffffffffffffffffffffffffffffffffff",
        "nonce": "0x6",
        "chainId": "0xaa36a7"
      },
      "additionalContracts": [],
      "isFixedGasLimit": false
    },
    {
      "hash": "0xabecafbf8dfb9c1c711b76d7dec3e35ccab96e455ab4fce042061a4251cd6951",
      "transactionType": "CALL",
      "contractName": "MockERC20",
      "contractAddress": "0x995b4cd6cc4bb7985b3869dc8edbd32fcd38a892",
      "function": "approve(address,uint256)",
      "arguments": [
        "0xC76480A173321F33CF976D0355DF8ECC8e22B4ff",
        "115792089237316195423570985008687907853269984665640564039457584007913129639935"
      ],
      "transaction": {
        "from": "0xf5ac3902153cd6bf53e8e7474380c3b86e8afa37",
        "to": "0x995b4cd6cc4bb7985b3869dc8edbd32fcd38a892",
        "gas": "0xfad1",
        "value": "0x0",
        "input": "0x095ea7b3000000000000000000000000c76480a173321f33cf976d0355df8ecc8e22b4ffffffffffffffffffffffffffffffffffffffffffffffffffffffffffffffffff",
        "nonce": "0x7",
        "chainId": "0xaa36a7"
      },
      "additionalContracts": [],
      "isFixedGasLimit": false
    },
    {
      "hash": "0x4198bd4f0ca2723e0f9632bbc708a4af8e53ccde5c46e398f6092d320ee7546b",
      "transactionType": "CALL",
      "contractName": null,
      "contractAddress": "0xe03a1074c86cfedd5c142c4f04f1a1536e203543",
      "function": "initialize((address,address,uint24,int24,address),uint160)",
      "arguments": [
        "(0x7CE8535D4fD28DE2d929B03A7B6d9d6045F36872, 0x995b4cD6Cc4Bb7985b3869DC8eDBd32FCd38a892, 8388608, 60, 0xca2f96f95c9E7a2109ecbD64bf80F7Cf77d86ac8)",
        "79228162514264337593543950336"
      ],
      "transaction": {
        "from": "0xf5ac3902153cd6bf53e8e7474380c3b86e8afa37",
        "to": "0xe03a1074c86cfedd5c142c4f04f1a1536e203543",
        "gas": "0x12cca",
        "value": "0x0",
        "input": "0x6276cbbe0000000000000000000000007ce8535d4fd28de2d929b03a7b6d9d6045f36872000000000000000000000000995b4cd6cc4bb7985b3869dc8edbd32fcd38a8920000000000000000000000000000000000000000000000000000000000800000000000000000000000000000000000000000000000000000000000000000003c000000000000000000000000ca2f96f95c9e7a2109ecbd64bf80f7cf77d86ac80000000000000000000000000000000000000001000000000000000000000000",
        "nonce": "0x8",
        "chainId": "0xaa36a7"
      },
      "additionalContracts": [],
      "isFixedGasLimit": false
    },
    {
      "hash": "0xf5b8e0452c35ca99e4f3b2366aff54005aefe6c9408781e4b3cb880c208cbd77",
      "transactionType": "CALL",
      "contractName": "PoolModifyLiquidityTest",
      "contractAddress": "0xc76480a173321f33cf976d0355df8ecc8e22b4ff",
      "function": "modifyLiquidity((address,address,uint24,int24,address),(int24,int24,int256,bytes32),bytes)",
      "arguments": [
        "(0x7CE8535D4fD28DE2d929B03A7B6d9d6045F36872, 0x995b4cD6Cc4Bb7985b3869DC8eDBd32FCd38a892, 8388608, 60, 0xca2f96f95c9E7a2109ecbD64bf80F7Cf77d86ac8)",
        "(-600, 600, 1000000000000000000000, 0x0000000000000000000000000000000000000000000000000000000000000000)",
        "0x"
      ],
      "transaction": {
        "from": "0xf5ac3902153cd6bf53e8e7474380c3b86e8afa37",
        "to": "0xc76480a173321f33cf976d0355df8ecc8e22b4ff",
        "gas": "0x6c90b",
        "value": "0x0",
        "input": "0x5a6bcfda0000000000000000000000007ce8535d4fd28de2d929b03a7b6d9d6045f36872000000000000000000000000995b4cd6cc4bb7985b3869dc8edbd32fcd38a8920000000000000000000000000000000000000000000000000000000000800000000000000000000000000000000000000000000000000000000000000000003c000000000000000000000000ca2f96f95c9e7a2109ecbd64bf80f7cf77d86ac8fffffffffffffffffffffffffffffffffffffffffffffffffffffffffffffda8000000000000000000000000000000000000000000000000000000000000025800000000000000000000000000000000000000000000003635c9adc5dea00000000000000000000000000000000000000000000000000000000000000000000000000000000000000000000000000000000000000000000000000000000001400000000000000000000000000000000000000000000000000000000000000000",
        "nonce": "0x9",
        "chainId": "0xaa36a7"
      },
      "additionalContracts": [],
      "isFixedGasLimit": false
    }
  ],
  "receipts": [
    {
      "type": "0x2",
      "status": "0x1",
      "cumulativeGasUsed": "0x12c257c",
      "logs": [],
      "logsBloom": "0x00000000000000000000000000000000000000000000000000000000000000000000000000000000000000000000000000000000000000000000000000000000000000000000000000000000000000000000000000000000000000000000000000000000000000000000000000000000000000000000000000000000000000000000000000000000000000000000000000000000000000000000000000000000000000000000000000000000000000000000000000000000000000000000000000000000000000000000000000000000000000000000000000000000000000000000000000000000000000000000000000000000000000000000000000000000",
      "transactionHash": "0x2e210374ceeb3e6c5c98635ae1fcc162208d32c8aeff32b464adb0fa1d7791bb",
      "transactionIndex": "0xba",
      "blockHash": "0xf37797ec2b6a959f43aedb4d453645fb0d380d347ec005f9a037e070de86509b",
      "blockNumber": "0xa83537",
      "gasUsed": "0xb6949",
      "effectiveGasPrice": "0x3f06df12",
      "from": "0xf5ac3902153cd6bf53e8e7474380c3b86e8afa37",
      "to": null,
      "contractAddress": "0x7ce8535d4fd28de2d929b03a7b6d9d6045f36872"
    },
    {
      "type": "0x2",
      "status": "0x1",
      "cumulativeGasUsed": "0x121501f",
      "logs": [],
      "logsBloom": "0x00000000000000000000000000000000000000000000000000000000000000000000000000000000000000000000000000000000000000000000000000000000000000000000000000000000000000000000000000000000000000000000000000000000000000000000000000000000000000000000000000000000000000000000000000000000000000000000000000000000000000000000000000000000000000000000000000000000000000000000000000000000000000000000000000000000000000000000000000000000000000000000000000000000000000000000000000000000000000000000000000000000000000000000000000000000",
      "transactionHash": "0x4997407fde7997b17d80f6288432435717fb6930430a076d3bb3675f448895c7",
      "transactionIndex": "0xce",
      "blockHash": "0xf232992fb86cc7d821a0365e750eab9ef5223b6dedb7c26f77a1d686793191f6",
      "blockNumber": "0xa83538",
      "gasUsed": "0xb6949",
      "effectiveGasPrice": "0x3d1426af",
      "from": "0xf5ac3902153cd6bf53e8e7474380c3b86e8afa37",
      "to": null,
      "contractAddress": "0x995b4cd6cc4bb7985b3869dc8edbd32fcd38a892"
    },
    {
      "type": "0x2",
      "status": "0x1",
      "cumulativeGasUsed": "0x19057b4",
      "logs": [
        {
          "address": "0x7ce8535d4fd28de2d929b03a7b6d9d6045f36872",
          "topics": [
            "0xddf252ad1be2c89b69c2b068fc378daa952ba7f163c4a11628f55a4df523b3ef",
            "0x0000000000000000000000000000000000000000000000000000000000000000",
            "0x000000000000000000000000f5ac3902153cd6bf53e8e7474380c3b86e8afa37"
          ],
          "data": "0x00000000000000000000000000000000000000000000d3c21bcecceda1000000",
          "blockHash": "0x48a074027f2fc21b4cfdd394f7cebd20d9c7cbcbca66e97f3f6648e2cd7c90c4",
          "blockNumber": "0xa8353a",
          "blockTimestamp": "0x6a28400c",
          "transactionHash": "0xdf024d17f67436d4ef284d69b8e9b4e6e806e445700e699e2d893449891e66b1",
          "transactionIndex": "0xe1",
          "logIndex": "0x290",
          "removed": false
        }
      ],
      "logsBloom": "0x00000000000000000000000000000000000000000000100000000000000000002000000000000000000000000000000000000000000000000000000000000000000000000000800000000008000000000000000000000000000000000000000000000000020000000000000000000800000000000000000000000010000000000000000000000000000000000000000000000010000000000000000000000000000000000000000000000000000000000000000000000000000000000000000000000002100000000000000000000000000000000000000000000000000020010000000000000000000000000000000000000000000000000000000000000000",
      "transactionHash": "0xdf024d17f67436d4ef284d69b8e9b4e6e806e445700e699e2d893449891e66b1",
      "transactionIndex": "0xe1",
      "blockHash": "0x48a074027f2fc21b4cfdd394f7cebd20d9c7cbcbca66e97f3f6648e2cd7c90c4",
      "blockNumber": "0xa8353a",
      "gasUsed": "0x10aef",
      "effectiveGasPrice": "0x42fb0979",
      "from": "0xf5ac3902153cd6bf53e8e7474380c3b86e8afa37",
      "to": "0x7ce8535d4fd28de2d929b03a7b6d9d6045f36872",
      "contractAddress": null
    },
    {
      "type": "0x2",
      "status": "0x1",
      "cumulativeGasUsed": "0x10076c9",
      "logs": [
        {
          "address": "0x995b4cd6cc4bb7985b3869dc8edbd32fcd38a892",
          "topics": [
            "0xddf252ad1be2c89b69c2b068fc378daa952ba7f163c4a11628f55a4df523b3ef",
            "0x0000000000000000000000000000000000000000000000000000000000000000",
            "0x000000000000000000000000f5ac3902153cd6bf53e8e7474380c3b86e8afa37"
          ],
          "data": "0x00000000000000000000000000000000000000000000d3c21bcecceda1000000",
          "blockHash": "0xa1c6be385317af941a380ed54b62f14a3cc03cc6549fc5f2525411f19c0b8ac4",
          "blockNumber": "0xa8353b",
          "blockTimestamp": "0x6a284018",
          "transactionHash": "0x195e0f77bf6602039adb6f6dcc0db75c699f2e8b21f835b9f641d8a230e24cfa",
          "transactionIndex": "0xce",
          "logIndex": "0x1eb",
          "removed": false
        }
      ],
      "logsBloom": "0x00000000000000000000000000000000000000000000000000000000000000000000000000000000000000000000000000000000000000000000000000000000000000000000800000000008000000000000000000000040000000000000000000000000020000000000000000000800000000000000000000000010000000000000000000000000000000000000000000000010000000000000000000000000000000000000000000000000000000000000000000000000000000000000000000000002000000000000000000000000000000000000000000000000000024010100000000000000000000000000000000000000000000000000000000000000",
      "transactionHash": "0x195e0f77bf6602039adb6f6dcc0db75c699f2e8b21f835b9f641d8a230e24cfa",
      "transactionIndex": "0xce",
      "blockHash": "0xa1c6be385317af941a380ed54b62f14a3cc03cc6549fc5f2525411f19c0b8ac4",
      "blockNumber": "0xa8353b",
      "gasUsed": "0x10aef",
      "effectiveGasPrice": "0x45ebcd82",
      "from": "0xf5ac3902153cd6bf53e8e7474380c3b86e8afa37",
      "to": "0x995b4cd6cc4bb7985b3869dc8edbd32fcd38a892",
      "contractAddress": null
    },
    {
      "type": "0x2",
      "status": "0x1",
      "cumulativeGasUsed": "0xff401f",
      "logs": [],
      "logsBloom": "0x00000000000000000000000000000000000000000000000000000000000000000000000000000000000000000000000000000000000000000000000000000000000000000000000000000000000000000000000000000000000000000000000000000000000000000000000000000000000000000000000000000000000000000000000000000000000000000000000000000000000000000000000000000000000000000000000000000000000000000000000000000000000000000000000000000000000000000000000000000000000000000000000000000000000000000000000000000000000000000000000000000000000000000000000000000000",
      "transactionHash": "0x72a7a3f16167557471e7e3cf77e59c66231164000a995a1113fe2fcf9e349012",
      "transactionIndex": "0xa8",
      "blockHash": "0xebcbc2aefe0a37c582648c464ca19747a4887251feace6fb4ab023f1664e64bd",
      "blockNumber": "0xa8353c",
      "gasUsed": "0x1391fb",
      "effectiveGasPrice": "0x43022247",
      "from": "0xf5ac3902153cd6bf53e8e7474380c3b86e8afa37",
      "to": null,
      "contractAddress": "0xc76480a173321f33cf976d0355df8ecc8e22b4ff"
    },
    {
      "type": "0x2",
      "status": "0x1",
      "cumulativeGasUsed": "0xedb911",
      "logs": [
        {
          "address": "0x7ce8535d4fd28de2d929b03a7b6d9d6045f36872",
          "topics": [
            "0x8c5be1e5ebec7d5bd14f71427d1e84f3dd0314c0f7b2291e5b200ac8c7c3b925",
            "0x000000000000000000000000f5ac3902153cd6bf53e8e7474380c3b86e8afa37",
            "0x000000000000000000000000c76480a173321f33cf976d0355df8ecc8e22b4ff"
          ],
          "data": "0xffffffffffffffffffffffffffffffffffffffffffffffffffffffffffffffff",
          "blockHash": "0x8e869fa4248cf1a407a81f49dc9cfd1b8a9d8d0c31daf9e51f8607e42938c0f8",
          "blockNumber": "0xa8353d",
          "blockTimestamp": "0x6a284030",
          "transactionHash": "0xafe7448544ed5d077bd193280ab391926dbc1b4230333c111fa9c36e27883e2f",
          "transactionIndex": "0xb6",
          "logIndex": "0x1b4",
          "removed": false
        }
      ],
      "logsBloom": "0x00000000000000000000000000000000000000000000100000000000000000002000000000000000000000000000000000000000000000000000000000200000000000000000800000000000000100000000000000000000000000000000000000000000000000000000000000000000000000000000000000000000000000000000000000000000000000000000000000000010000000000000000000000000020000000000000000000000000000000000000000000000000000000000000000000000100000000000000000000000004000000000000000000000000000010010000000000000000000000000000000004000000000000000000000000000",
      "transactionHash": "0xafe7448544ed5d077bd193280ab391926dbc1b4230333c111fa9c36e27883e2f",
      "transactionIndex": "0xb6",
      "blockHash": "0x8e869fa4248cf1a407a81f49dc9cfd1b8a9d8d0c31daf9e51f8607e42938c0f8",
      "blockNumber": "0xa8353d",
      "gasUsed": "0xb597",
      "effectiveGasPrice": "0x40ad8f78",
      "from": "0xf5ac3902153cd6bf53e8e7474380c3b86e8afa37",
      "to": "0x7ce8535d4fd28de2d929b03a7b6d9d6045f36872",
      "contractAddress": null
    },
    {
      "type": "0x2",
      "status": "0x1",
      "cumulativeGasUsed": "0x1157b4e",
      "logs": [
        {
          "address": "0x995b4cd6cc4bb7985b3869dc8edbd32fcd38a892",
          "topics": [
            "0x8c5be1e5ebec7d5bd14f71427d1e84f3dd0314c0f7b2291e5b200ac8c7c3b925",
            "0x000000000000000000000000f5ac3902153cd6bf53e8e7474380c3b86e8afa37",
            "0x000000000000000000000000c76480a173321f33cf976d0355df8ecc8e22b4ff"
          ],
          "data": "0xffffffffffffffffffffffffffffffffffffffffffffffffffffffffffffffff",
          "blockHash": "0x919afccda2aba251886657a24f056036b0ba93de3e86ca345278544c0cbd09a6",
          "blockNumber": "0xa8353e",
          "blockTimestamp": "0x6a28403c",
          "transactionHash": "0xabecafbf8dfb9c1c711b76d7dec3e35ccab96e455ab4fce042061a4251cd6951",
          "transactionIndex": "0xd4",
          "logIndex": "0x235",
          "removed": false
        }
      ],
      "logsBloom": "0x00000000000000000000000000000000000000000000000000000000000000000000000000000000000000000000000000000000000000000000000000200000000000000000800000000000000100000000000000000040000000000000000000000000000000000000000000000000000000000000000000000000000000000000000000000000000000000000000000000010000000000000000000000000020000000000000000000000000000000000000000000000000000000000000000000000000000000000000000000000004000000000000000000000000004010110000000000000000000000000000000004000000000000000000000000000",
      "transactionHash": "0xabecafbf8dfb9c1c711b76d7dec3e35ccab96e455ab4fce042061a4251cd6951",
      "transactionIndex": "0xd4",
      "blockHash": "0x919afccda2aba251886657a24f056036b0ba93de3e86ca345278544c0cbd09a6",
      "blockNumber": "0xa8353e",
      "gasUsed": "0xb597",
      "effectiveGasPrice": "0x3e94c193",
      "from": "0xf5ac3902153cd6bf53e8e7474380c3b86e8afa37",
      "to": "0x995b4cd6cc4bb7985b3869dc8edbd32fcd38a892",
      "contractAddress": null
    },
    {
      "type": "0x2",
      "status": "0x1",
      "cumulativeGasUsed": "0x1340eec",
      "logs": [
        {
          "address": "0xe03a1074c86cfedd5c142c4f04f1a1536e203543",
          "topics": [
            "0xdd466e674ea557f56295e2d0218a125ea4b4f0f6f3307b95f85e6110838d6438",
            "0x467d6551c1ac498475b01dd23cd73ce9a61de3fae5e00455e696cc55d5522818",
            "0x0000000000000000000000007ce8535d4fd28de2d929b03a7b6d9d6045f36872",
            "0x000000000000000000000000995b4cd6cc4bb7985b3869dc8edbd32fcd38a892"
          ],
          "data": "0x0000000000000000000000000000000000000000000000000000000000800000000000000000000000000000000000000000000000000000000000000000003c000000000000000000000000ca2f96f95c9e7a2109ecbd64bf80f7cf77d86ac800000000000000000000000000000000000000010000000000000000000000000000000000000000000000000000000000000000000000000000000000000000",
          "blockHash": "0x7f04c43e53c8aa8c302e98f318afcb43f63c05ebd3b31df3e45f7bea38525204",
          "blockNumber": "0xa8353f",
          "blockTimestamp": "0x6a284048",
          "transactionHash": "0x4198bd4f0ca2723e0f9632bbc708a4af8e53ccde5c46e398f6092d320ee7546b",
          "transactionIndex": "0xbd",
          "logIndex": "0x1f7",
          "removed": false
        }
      ],
      "logsBloom": "0x00000000000000000000000000000000000000000000000000000008000000000000000000100000000000000000000000000100000000000000000000000000000000000000040000000000000000000000000000000000000000000000000000000000000000000000000000000001000000000000104000000000000000000000000000000808000000000000000000000001000000000000000000200000000000000000000000000040000000000000000000000000080000000000000000000000000000000000000000000000000000000000000000000000000000001000000000000000000000000000000000000000080000000000000000000000",
      "transactionHash": "0x4198bd4f0ca2723e0f9632bbc708a4af8e53ccde5c46e398f6092d320ee7546b",
      "transactionIndex": "0xbd",
      "blockHash": "0x7f04c43e53c8aa8c302e98f318afcb43f63c05ebd3b31df3e45f7bea38525204",
      "blockNumber": "0xa8353f",
      "gasUsed": "0xd9c5",
      "effectiveGasPrice": "0x3e86b623",
      "from": "0xf5ac3902153cd6bf53e8e7474380c3b86e8afa37",
      "to": "0xe03a1074c86cfedd5c142c4f04f1a1536e203543",
      "contractAddress": null
    },
    {
      "type": "0x2",
      "status": "0x1",
      "cumulativeGasUsed": "0x1028262",
      "logs": [
        {
          "address": "0xe03a1074c86cfedd5c142c4f04f1a1536e203543",
          "topics": [
            "0xf208f4912782fd25c7f114ca3723a2d5dd6f3bcc3ac8db5af63baa85f711d5ec",
            "0x467d6551c1ac498475b01dd23cd73ce9a61de3fae5e00455e696cc55d5522818",
            "0x000000000000000000000000c76480a173321f33cf976d0355df8ecc8e22b4ff"
          ],
          "data": "0xfffffffffffffffffffffffffffffffffffffffffffffffffffffffffffffda8000000000000000000000000000000000000000000000000000000000000025800000000000000000000000000000000000000000000003635c9adc5dea000000000000000000000000000000000000000000000000000000000000000000000",
          "blockHash": "0x086dea0e651b7e78e93eca96b3c0fdc38be013c13a5e09109a63dd3b2aa40b6f",
          "blockNumber": "0xa83540",
          "blockTimestamp": "0x6a284054",
          "transactionHash": "0xf5b8e0452c35ca99e4f3b2366aff54005aefe6c9408781e4b3cb880c208cbd77",
          "transactionIndex": "0xa8",
          "logIndex": "0x197",
          "removed": false
        },
        {
          "address": "0x7ce8535d4fd28de2d929b03a7b6d9d6045f36872",
          "topics": [
            "0xddf252ad1be2c89b69c2b068fc378daa952ba7f163c4a11628f55a4df523b3ef",
            "0x000000000000000000000000f5ac3902153cd6bf53e8e7474380c3b86e8afa37",
            "0x000000000000000000000000e03a1074c86cfedd5c142c4f04f1a1536e203543"
          ],
          "data": "0x0000000000000000000000000000000000000000000000019a2162d0e639c111",
          "blockHash": "0x086dea0e651b7e78e93eca96b3c0fdc38be013c13a5e09109a63dd3b2aa40b6f",
          "blockNumber": "0xa83540",
          "blockTimestamp": "0x6a284054",
          "transactionHash": "0xf5b8e0452c35ca99e4f3b2366aff54005aefe6c9408781e4b3cb880c208cbd77",
          "transactionIndex": "0xa8",
          "logIndex": "0x198",
          "removed": false
        },
        {
          "address": "0x995b4cd6cc4bb7985b3869dc8edbd32fcd38a892",
          "topics": [
            "0xddf252ad1be2c89b69c2b068fc378daa952ba7f163c4a11628f55a4df523b3ef",
            "0x000000000000000000000000f5ac3902153cd6bf53e8e7474380c3b86e8afa37",
            "0x000000000000000000000000e03a1074c86cfedd5c142c4f04f1a1536e203543"
          ],
          "data": "0x0000000000000000000000000000000000000000000000019a2162d0e639c111",
          "blockHash": "0x086dea0e651b7e78e93eca96b3c0fdc38be013c13a5e09109a63dd3b2aa40b6f",
          "blockNumber": "0xa83540",
          "blockTimestamp": "0x6a284054",
          "transactionHash": "0xf5b8e0452c35ca99e4f3b2366aff54005aefe6c9408781e4b3cb880c208cbd77",
          "transactionIndex": "0xa8",
          "logIndex": "0x199",
          "removed": false
        }
      ],
      "logsBloom": "0x00000000000000000000000000000000000000000000100000000008000000002000000000000000000000000000000000000100000000000000000000000000000000000000800000000008000100000000000000000040000000000000000000000000000000000000000080000000000000000000100000000010000000000000000001000000000010000000000000000010000000000000000000000000000004000000000000000040000000000000000000000000080000000000000000000002100000000000000000000000004000000000000000001000000004011100000000000000000000000000000004004000000000000000000000000000",
      "transactionHash": "0xf5b8e0452c35ca99e4f3b2366aff54005aefe6c9408781e4b3cb880c208cbd77",
      "transactionIndex": "0xa8",
      "blockHash": "0x086dea0e651b7e78e93eca96b3c0fdc38be013c13a5e09109a63dd3b2aa40b6f",
      "blockNumber": "0xa83540",
      "gasUsed": "0x4a3b9",
      "effectiveGasPrice": "0x3d5de9f8",
      "from": "0xf5ac3902153cd6bf53e8e7474380c3b86e8afa37",
      "to": "0xc76480a173321f33cf976d0355df8ecc8e22b4ff",
      "contractAddress": null
    }
  ],
  "libraries": [],
  "pending": [],
  "returns": {},
  "timestamp": 1781022805461,
  "chain": 11155111,
  "commit": "4ce6d3e"
}