{
  "transactions": [
    {
      "hash": "0x8a2ab97fb101f1eb68a81849ec7bab74447c125b53d525f992db1bdd714d970b",
      "transactionType": "CREATE",
      "contractName": "JITSimulator",
      "contractAddress": "0x86a1a915d2a63f054220fca41e95ae437ed51e6b",
      "function": null,
      "arguments": [
        "0xE03A1074c86CFeDd5C142C4F04F1a1536e203543"
      ],
      "transaction": {
        "from": "0xf5ac3902153cd6bf53e8e7474380c3b86e8afa37",
        "to": null,
        "gas": "0x11c9b7",
        "value": "0x0",
        "input": "0x60a0604052348015600e575f80fd5b50604051610ff2380380610ff2833981016040819052602b91603b565b6001600160a01b03166080526066565b5f60208284031215604a575f80fd5b81516001600160a01b0381168114605f575f80fd5b9392505050565b608051610f3e6100b45f395f8181605d0152818160be0152818161017a015281816102720152818161037001528181610463015281816104b90152818161051e015261056d0152610f3e5ff3fe608060405234801561000f575f80fd5b506004361061003f575f3560e01c80631e07ff9414610043578063481c6a751461005857806391dd73461461009c575b5f80fd5b610056610051366004610939565b6100bc565b005b61007f7f000000000000000000000000000000000000000000000000000000000000000081565b6040516001600160a01b0390911681526020015b60405180910390f35b6100af6100aa366004610953565b61016d565b60405161009391906109c1565b7f00000000000000000000000000000000000000000000000000000000000000006001600160a01b03166348c89491826040516020016100fc9190610a46565b6040516020818303038152906040526040518263ffffffff1660e01b815260040161012791906109c1565b5f604051808303815f875af1158015610142573d5f803e3d5ffd5b505050506040513d5f823e601f3d908101601f191682016040526101699190810190610bd0565b5050565b6060336001600160a01b037f000000000000000000000000000000000000000000000000000000000000000016146101da5760405162461bcd60e51b815260206004820152600c60248201526b37b7363c9036b0b730b3b2b960a11b604482015260640160405180910390fd5b5f6101e783850185610c64565b90506101fc815f015160018360a0015161026f565b61021c815f0151826040015183606001518460200151856080015161036d565b610245815f015182604001518360600151846020015161023b90610d60565b856080015161036d565b610258815f015160018360c0015161026f565b505060408051602081019091525f81525b92915050565b5f7f00000000000000000000000000000000000000000000000000000000000000006001600160a01b031663f3cd914c8560405180606001604052808715158152602001868152602001876102e2576102dd600173fffd8963efd1fc6a506488495d951d5263988d26610d8d565b6102f2565b6102f26401000276a36001610dac565b6001600160a01b03168152506040518363ffffffff1660e01b815260040161031b929190610e0e565b6020604051808303815f875af1158015610337573d5f803e3d5ffd5b505050506040513d601f19601f8201168201806040525081019061035b9190610e58565b90506103678482610439565b50505050565b5f7f00000000000000000000000000000000000000000000000000000000000000006001600160a01b0316635a6bcfda8760405180608001604052808960020b81526020018860020b815260200187600f0b8152602001868152506040518363ffffffff1660e01b81526004016103e5929190610e6f565b60408051808303815f875af1158015610400573d5f803e3d5ffd5b505050506040513d601f19601f820116820180604052508101906104249190610ec0565b5090506104318682610439565b505050505050565b5f6104448260801d90565b90505f61045183600f0b90565b90505f82600f0b12156104a9576104a97f00000000000000000000000000000000000000000000000000000000000000003061048c85610d60565b87516001600160a01b03169291906001600160801b03165f61059d565b5f81600f0b1215610502576105027f0000000000000000000000000000000000000000000000000000000000000000306104e284610d60565b60208801516001600160a01b03169291906001600160801b03165f61059d565b5f82600f0b131561054e57835161054e906001600160a01b03167f0000000000000000000000000000000000000000000000000000000000000000306001600160801b0386165f610867565b5f81600f0b1315610367576020840151610367906001600160a01b03167f0000000000000000000000000000000000000000000000000000000000000000306001600160801b0385165f610867565b801561063257836001600160a01b031663f5298aca846105cc886001600160a01b03166001600160a01b031690565b6040516001600160e01b031960e085901b1681526001600160a01b0390921660048301526024820152604481018590526064015b5f604051808303815f87803b158015610617575f80fd5b505af1158015610629573d5f803e3d5ffd5b50505050610860565b6001600160a01b0385166106a957836001600160a01b03166311da60b4836040518263ffffffff1660e01b815260040160206040518083038185885af115801561067e573d5f803e3d5ffd5b50505050506040513d601f19601f820116820180604052508101906106a39190610e58565b50610860565b604051632961046560e21b81526001600160a01b03868116600483015285169063a5841194906024015f604051808303815f87803b1580156106e9575f80fd5b505af11580156106fb573d5f803e3d5ffd5b505050506001600160a01b038316301461078d576040516323b872dd60e01b81526001600160a01b0384811660048301528581166024830152604482018490528616906323b872dd906064016020604051808303815f875af1158015610763573d5f803e3d5ffd5b505050506040513d601f19601f820116820180604052508101906107879190610ee2565b506107ff565b60405163a9059cbb60e01b81526001600160a01b0385811660048301526024820184905286169063a9059cbb906044016020604051808303815f875af11580156107d9573d5f803e3d5ffd5b505050506040513d601f19601f820116820180604052508101906107fd9190610ee2565b505b836001600160a01b03166311da60b46040518163ffffffff1660e01b81526004016020604051808303815f875af115801561083c573d5f803e3d5ffd5b505050506040513d601f19601f820116820180604052508101906104319190610e58565b5050505050565b806108a957604051630b0d9c0960e01b81526001600160a01b038681166004830152848116602483015260448201849052851690630b0d9c0990606401610600565b836001600160a01b031663156e29f6846108d2886001600160a01b03166001600160a01b031690565b6040516001600160e01b031960e085901b1681526001600160a01b0390921660048301526024820152604481018590526064015f604051808303815f87803b15801561091c575f80fd5b505af115801561092e573d5f803e3d5ffd5b505050505050505050565b5f61016082840312801561094b575f80fd5b509092915050565b5f8060208385031215610964575f80fd5b823567ffffffffffffffff81111561097a575f80fd5b8301601f8101851361098a575f80fd5b803567ffffffffffffffff8111156109a0575f80fd5b8560208284010111156109b1575f80fd5b6020919091019590945092505050565b602081525f82518060208401528060208501604085015e5f604082850101526040601f19601f83011684010191505092915050565b6001600160a01b0381168114610a0a575f80fd5b50565b803562ffffff81168114610a1f575f80fd5b919050565b8035600281900b8114610a1f575f80fd5b8035600f81900b8114610a1f575f80fd5b61016081018235610a56816109f6565b6001600160a01b031682526020830135610a6f816109f6565b6001600160a01b0316602083015262ffffff610a8d60408501610a0d565b166040830152610a9f60608401610a24565b60020b60608301526080830135610ab5816109f6565b6001600160a01b03166080830152610acf60a08401610a35565b610ade60a0840182600f0b9052565b50610aeb60c08401610a24565b610afa60c084018260020b9052565b50610b0760e08401610a24565b610b1660e084018260020b9052565b506101008381013590830152610120808401359083015261014092830135929091019190915290565b634e487b7160e01b5f52604160045260245ffd5b60405160e0810167ffffffffffffffff81118282101715610b7657610b76610b3f565b60405290565b60405160a0810167ffffffffffffffff81118282101715610b7657610b76610b3f565b604051601f8201601f1916810167ffffffffffffffff81118282101715610bc857610bc8610b3f565b604052919050565b5f60208284031215610be0575f80fd5b815167ffffffffffffffff811115610bf6575f80fd5b8201601f81018413610c06575f80fd5b805167ffffffffffffffff811115610c2057610c20610b3f565b610c33601f8201601f1916602001610b9f565b818152856020838501011115610c47575f80fd5b8160208401602083015e5f91810160200191909152949350505050565b5f81830361016081128015610c77575f80fd5b50610c80610b53565b60a0821215610c8d575f80fd5b610c95610b7c565b91508335610ca2816109f6565b82526020840135610cb2816109f6565b6020830152610cc360408501610a0d565b6040830152610cd460608501610a24565b60608301526080840135610ce7816109f6565b6080830152818152610cfb60a08501610a35565b6020820152610d0c60c08501610a24565b6040820152610d1d60e08501610a24565b6060820152610100840135608082015261012084013560a08201526101409093013560c0840152509092915050565b634e487b7160e01b5f52601160045260245ffd5b5f81600f0b6f7fffffffffffffffffffffffffffffff198103610d8557610d85610d4c565b5f0392915050565b6001600160a01b03828116828216039081111561026957610269610d4c565b6001600160a01b03818116838216019081111561026957610269610d4c565b80516001600160a01b03908116835260208083015182169084015260408083015162ffffff169084015260608083015160020b9084015260809182015116910152565b610e188184610dcb565b8151151560a0820152602082015160c08201526040909101516001600160a01b031660e082015261012061010082018190525f9082015261014001919050565b5f60208284031215610e68575f80fd5b5051919050565b610e798184610dcb565b8151600290810b60a08301526020830151900b60c0820152604082015160e082015260609091015161010082015261014061012082018190525f9082015261016001919050565b5f8060408385031215610ed1575f80fd5b505080516020909101519092909150565b5f60208284031215610ef2575f80fd5b81518015158114610f01575f80fd5b939250505056fea26469706673582212203ff9cecf2f9d6525859dbc292ac3cccc4abbb8bd4204db6599b504dd3b00f2c064736f6c634300081a0033000000000000000000000000e03a1074c86cfedd5c142c4f04f1a1536e203543",
        "nonce": "0xa",
        "chainId": "0xaa36a7"
      },
      "additionalContracts": [],
      "isFixedGasLimit": false
    },
    {
      "hash": "0xf4615c05f298800857e05a4bc73e7119b115beb0fe9c7b80816396b74c0e006a",
      "transactionType": "CALL",
      "contractName": null,
      "contractAddress": "0x7ce8535d4fd28de2d929b03a7b6d9d6045f36872",
      "function": "transfer(address,uint256)",
      "arguments": [
        "0x86A1a915D2a63F054220fca41e95aE437Ed51E6b",
        "100000000000000000000"
      ],
      "transaction": {
        "from": "0xf5ac3902153cd6bf53e8e7474380c3b86e8afa37",
        "to": "0x7ce8535d4fd28de2d929b03a7b6d9d6045f36872",
        "gas": "0x114ea",
        "value": "0x0",
        "input": "0xa9059cbb00000000000000000000000086a1a915d2a63f054220fca41e95ae437ed51e6b0000000000000000000000000000000000000000000000056bc75e2d63100000",
        "nonce": "0xb",
        "chainId": "0xaa36a7"
      },
      "additionalContracts": [],
      "isFixedGasLimit": false
    },
    {
      "hash": "0x586117fcab5d56da7607af5610afb0e490408ebbf2bdbe5fa209352cfbd79fc6",
      "transactionType": "CALL",
      "contractName": null,
      "contractAddress": "0x995b4cd6cc4bb7985b3869dc8edbd32fcd38a892",
      "function": "transfer(address,uint256)",
      "arguments": [
        "0x86A1a915D2a63F054220fca41e95aE437Ed51E6b",
        "100000000000000000000"
      ],
      "transaction": {
        "from": "0xf5ac3902153cd6bf53e8e7474380c3b86e8afa37",
        "to": "0x995b4cd6cc4bb7985b3869dc8edbd32fcd38a892",
        "gas": "0x114ea",
        "value": "0x0",
        "input": "0xa9059cbb00000000000000000000000086a1a915d2a63f054220fca41e95ae437ed51e6b0000000000000000000000000000000000000000000000056bc75e2d63100000",
        "nonce": "0xc",
        "chainId": "0xaa36a7"
      },
      "additionalContracts": [],
      "isFixedGasLimit": false
    },
    {
      "hash": "0x2ee624d85aa911c9a7d54a975266b77f7cb8a75810d312c963b791e8f35a1d1f",
      "transactionType": "CALL",
      "contractName": "JITSimulator",
      "contractAddress": "0x86a1a915d2a63f054220fca41e95ae437ed51e6b",
      "function": "runScenario(((address,address,uint24,int24,address),int128,int24,int24,bytes32,int256,int256))",
      "arguments": [
        "((0x7CE8535D4fD28DE2d929B03A7B6d9d6045F36872, 0x995b4cD6Cc4Bb7985b3869DC8eDBd32FCd38a892, 8388608, 60, 0xca2f96f95c9E7a2109ecbD64bf80F7Cf77d86ac8), 1000000000000000000000, -60, 60, 0x000000000000000000000000000000000000000000000000000000000000dead, -10000000000000000, -1000000000000000000)"
      ],
      "transaction": {
        "from": "0xf5ac3902153cd6bf53e8e7474380c3b86e8afa37",
        "to": "0x86a1a915d2a63f054220fca41e95ae437ed51e6b",
        "gas": "0x7b452",
        "value": "0x0",
        "input": "0x1e07ff940000000000000000000000007ce8535d4fd28de2d929b03a7b6d9d6045f36872000000000000000000000000995b4cd6cc4bb7985b3869dc8edbd32fcd38a8920000000000000000000000000000000000000000000000000000000000800000000000000000000000000000000000000000000000000000000000000000003c000000000000000000000000ca2f96f95c9e7a2109ecbd64bf80f7cf77d86ac800000000000000000000000000000000000000000000003635c9adc5dea00000ffffffffffffffffffffffffffffffffffffffffffffffffffffffffffffffc4000000000000000000000000000000000000000000000000000000000000003c000000000000000000000000000000000000000000000000000000000000deadffffffffffffffffffffffffffffffffffffffffffffffffffdc790d903f0000fffffffffffffffffffffffffffffffffffffffffffffffff21f494c589c0000",
        "nonce": "0xd",
        "chainId": "0xaa36a7"
      },
      "additionalContracts": [],
      "isFixedGasLimit": false
    }
  ],
  "receipts": [
    {
      "type": "0x2",
      "status": "0x1",
      "cumulativeGasUsed": "0x13b0a8a",
      "logs": [],
      "logsBloom": "0x00000000000000000000000000000000000000000000000000000000000000000000000000000000000000000000000000000000000000000000000000000000000000000000000000000000000000000000000000000000000000000000000000000000000000000000000000000000000000000000000000000000000000000000000000000000000000000000000000000000000000000000000000000000000000000000000000000000000000000000000000000000000000000000000000000000000000000000000000000000000000000000000000000000000000000000000000000000000000000000000000000000000000000000000000000000",
      "transactionHash": "0x8a2ab97fb101f1eb68a81849ec7bab74447c125b53d525f992db1bdd714d970b",
      "transactionIndex": "0xc5",
      "blockHash": "0x8695059720b2f2020f95d858e1777af1bf394f7c4baf47559dccbc5c905d147e",
      "blockNumber": "0xa835c8",
      "gasUsed": "0xdaedc",
      "effectiveGasPrice": "0x7ec2701a",
      "from": "0xf5ac3902153cd6bf53e8e7474380c3b86e8afa37",
      "to": null,
      "contractAddress": "0x86a1a915d2a63f054220fca41e95ae437ed51e6b"
    },
    {
      "type": "0x2",
      "status": "0x1",
      "cumulativeGasUsed": "0x19fd995",
      "logs": [
        {
          "address": "0x7ce8535d4fd28de2d929b03a7b6d9d6045f36872",
          "topics": [
            "0xddf252ad1be2c89b69c2b068fc378daa952ba7f163c4a11628f55a4df523b3ef",
            "0x000000000000000000000000f5ac3902153cd6bf53e8e7474380c3b86e8afa37",
            "0x00000000000000000000000086a1a915d2a63f054220fca41e95ae437ed51e6b"
          ],
          "data": "0x0000000000000000000000000000000000000000000000056bc75e2d63100000",
          "blockHash": "0x4cccf19126137fcdc9ddd7ffbcb9609b860107face97d91f501030851faacaaf",
          "blockNumber": "0xa835c9",
          "blockTimestamp": "0x6a2846cc",
          "transactionHash": "0xf4615c05f298800857e05a4bc73e7119b115beb0fe9c7b80816396b74c0e006a",
          "transactionIndex": "0xe2",
          "logIndex": "0x220",
          "removed": false
        }
      ],
      "logsBloom": "0x00000000000000000000000000000000000000000000100000000000000000002000000000000000000000000000000000000000000000000000000000000000000000000000800000000008000000000000000000000000000000000000000000000000000000000000000000000000000000000000000000000010000000000000000000000000000000000000000000000010000000000000000000000000000000000000002000000000000000000000000000000000000000000000000000000002100004000000000000000000000000000000000000000000000000010000000000000000000000000000000000000000000000000000000000000040",
      "transactionHash": "0xf4615c05f298800857e05a4bc73e7119b115beb0fe9c7b80816396b74c0e006a",
      "transactionIndex": "0xe2",
      "blockHash": "0x4cccf19126137fcdc9ddd7ffbcb9609b860107face97d91f501030851faacaaf",
      "blockNumber": "0xa835c9",
      "gasUsed": "0xc87c",
      "effectiveGasPrice": "0x7cb76a03",
      "from": "0xf5ac3902153cd6bf53e8e7474380c3b86e8afa37",
      "to": "0x7ce8535d4fd28de2d929b03a7b6d9d6045f36872",
      "contractAddress": null
    },
    {
      "type": "0x2",
      "status": "0x1",
      "cumulativeGasUsed": "0x15627fa",
      "logs": [
        {
          "address": "0x995b4cd6cc4bb7985b3869dc8edbd32fcd38a892",
          "topics": [
            "0xddf252ad1be2c89b69c2b068fc378daa952ba7f163c4a11628f55a4df523b3ef",
            "0x000000000000000000000000f5ac3902153cd6bf53e8e7474380c3b86e8afa37",
            "0x00000000000000000000000086a1a915d2a63f054220fca41e95ae437ed51e6b"
          ],
          "data": "0x0000000000000000000000000000000000000000000000056bc75e2d63100000",
          "blockHash": "0xc44f2cc4f7348c6ae1ffca08a64db3844ac78cbf5f76c9ae0ceca0a49b9e386e",
          "blockNumber": "0xa835ca",
          "blockTimestamp": "0x6a2846d8",
          "transactionHash": "0x586117fcab5d56da7607af5610afb0e490408ebbf2bdbe5fa209352cfbd79fc6",
          "transactionIndex": "0x9e",
          "logIndex": "0x192",
          "removed": false
        }
      ],
      "logsBloom": "0x00000000000000000000000000000000000000000000000000000000000000000000000000000000000000000000000000000000000000000000000000000000000000000000800000000008000000000000000000000040000000000000000000000000000000000000000000000000000000000000000000000010000000000000000000000000000000000000000000000010000000000000000000000000000000000000002000000000000000000000000000000000000000000000000000000002000004000000000000000000000000000000000000000000000004010100000000000000000000000000000000000000000000000000000000000040",
      "transactionHash": "0x586117fcab5d56da7607af5610afb0e490408ebbf2bdbe5fa209352cfbd79fc6",
      "transactionIndex": "0x9e",
      "blockHash": "0xc44f2cc4f7348c6ae1ffca08a64db3844ac78cbf5f76c9ae0ceca0a49b9e386e",
      "blockNumber": "0xa835ca",
      "gasUsed": "0xc87c",
      "effectiveGasPrice": "0x8116d04d",
      "from": "0xf5ac3902153cd6bf53e8e7474380c3b86e8afa37",
      "to": "0x995b4cd6cc4bb7985b3869dc8edbd32fcd38a892",
      "contractAddress": null
    },
    {
      "type": "0x2",
      "status": "0x1",
      "cumulativeGasUsed": "0x15703c6",
      "logs": [
        {
          "address": "0xe03a1074c86cfedd5c142c4f04f1a1536e203543",
          "topics": [
            "0x40e9cecb9f5f1f1c5b9c97dec2917b7ee92e57ba5563708daca94dd84ad7112f",
            "0x467d6551c1ac498475b01dd23cd73ce9a61de3fae5e00455e696cc55d5522818",
            "0x00000000000000000000000086a1a915d2a63f054220fca41e95ae437ed51e6b"
          ],
          "data": "0xffffffffffffffffffffffffffffffffffffffffffffffffffdc790d903f0000000000000000000000000000000000000000000000000000002386db27595a360000000000000000000000000000000000000000ffff583ac1ac1c114b9160de00000000000000000000000000000000000000000000003635c9adc5dea00000ffffffffffffffffffffffffffffffffffffffffffffffffffffffffffffffff0000000000000000000000000000000000000000000000000000000000000000",
          "blockHash": "0xf6b54c292b4f300562fffe11032e215af1cb49d49f7db0df90b0d82d2ff5e7ad",
          "blockNumber": "0xa835cb",
          "blockTimestamp": "0x6a2846e4",
          "transactionHash": "0x2ee624d85aa911c9a7d54a975266b77f7cb8a75810d312c963b791e8f35a1d1f",
          "transactionIndex": "0xa8",
          "logIndex": "0x17b",
          "removed": false
        },
        {
          "address": "0x7ce8535d4fd28de2d929b03a7b6d9d6045f36872",
          "topics": [
            "0xddf252ad1be2c89b69c2b068fc378daa952ba7f163c4a11628f55a4df523b3ef",
            "0x00000000000000000000000086a1a915d2a63f054220fca41e95ae437ed51e6b",
            "0x000000000000000000000000e03a1074c86cfedd5c142c4f04f1a1536e203543"
          ],
          "data": "0x000000000000000000000000000000000000000000000000002386f26fc10000",
          "blockHash": "0xf6b54c292b4f300562fffe11032e215af1cb49d49f7db0df90b0d82d2ff5e7ad",
          "blockNumber": "0xa835cb",
          "blockTimestamp": "0x6a2846e4",
          "transactionHash": "0x2ee624d85aa911c9a7d54a975266b77f7cb8a75810d312c963b791e8f35a1d1f",
          "transactionIndex": "0xa8",
          "logIndex": "0x17c",
          "removed": false
        },
        {
          "address": "0x995b4cd6cc4bb7985b3869dc8edbd32fcd38a892",
          "topics": [
            "0xddf252ad1be2c89b69c2b068fc378daa952ba7f163c4a11628f55a4df523b3ef",
            "0x000000000000000000000000e03a1074c86cfedd5c142c4f04f1a1536e203543",
            "0x00000000000000000000000086a1a915d2a63f054220fca41e95ae437ed51e6b"
          ],
          "data": "0x000000000000000000000000000000000000000000000000002386db27595a36",
          "blockHash": "0xf6b54c292b4f300562fffe11032e215af1cb49d49f7db0df90b0d82d2ff5e7ad",
          "blockNumber": "0xa835cb",
          "blockTimestamp": "0x6a2846e4",
          "transactionHash": "0x2ee624d85aa911c9a7d54a975266b77f7cb8a75810d312c963b791e8f35a1d1f",
          "transactionIndex": "0xa8",
          "logIndex": "0x17d",
          "removed": false
        },
        {
          "address": "0xca2f96f95c9e7a2109ecbd64bf80f7cf77d86ac8",
          "topics": [
            "0x1edfe30e92a5e7721b8743f2dead9394351fae11ebce15371ba1b58e556af436",
            "0x467d6551c1ac498475b01dd23cd73ce9a61de3fae5e00455e696cc55d5522818",
            "0x00000000000000000000000086a1a915d2a63f054220fca41e95ae437ed51e6b"
          ],
          "data": "0x0000000000000000000000000000000000000000000000000000000000a835d0",
          "blockHash": "0xf6b54c292b4f300562fffe11032e215af1cb49d49f7db0df90b0d82d2ff5e7ad",
          "blockNumber": "0xa835cb",
          "blockTimestamp": "0x6a2846e4",
          "transactionHash": "0x2ee624d85aa911c9a7d54a975266b77f7cb8a75810d312c963b791e8f35a1d1f",
          "transactionIndex": "0xa8",
          "logIndex": "0x17e",
          "removed": false
        },
        {
          "address": "0xe03a1074c86cfedd5c142c4f04f1a1536e203543",
          "topics": [
            "0xf208f4912782fd25c7f114ca3723a2d5dd6f3bcc3ac8db5af63baa85f711d5ec",
            "0x467d6551c1ac498475b01dd23cd73ce9a61de3fae5e00455e696cc55d5522818",
            "0x00000000000000000000000086a1a915d2a63f054220fca41e95ae437ed51e6b"
          ],
          "data": "0xffffffffffffffffffffffffffffffffffffffffffffffffffffffffffffffc4000000000000000000000000000000000000000000000000000000000000003c00000000000000000000000000000000000000000000003635c9adc5dea00000000000000000000000000000000000000000000000000000000000000000dead",
          "blockHash": "0xf6b54c292b4f300562fffe11032e215af1cb49d49f7db0df90b0d82d2ff5e7ad",
          "blockNumber": "0xa835cb",
          "blockTimestamp": "0x6a2846e4",
          "transactionHash": "0x2ee624d85aa911c9a7d54a975266b77f7cb8a75810d312c963b791e8f35a1d1f",
          "transactionIndex": "0xa8",
          "logIndex": "0x17f",
          "removed": false
        },
        {
          "address": "0x7ce8535d4fd28de2d929b03a7b6d9d6045f36872",
          "topics": [
            "0xddf252ad1be2c89b69c2b068fc378daa952ba7f163c4a11628f55a4df523b3ef",
            "0x00000000000000000000000086a1a915d2a63f054220fca41e95ae437ed51e6b",
            "0x000000000000000000000000e03a1074c86cfedd5c142c4f04f1a1536e203543"
          ],
          "data": "0x00000000000000000000000000000000000000000000000029b52a68cb05980a",
          "blockHash": "0xf6b54c292b4f300562fffe11032e215af1cb49d49f7db0df90b0d82d2ff5e7ad",
          "blockNumber": "0xa835cb",
          "blockTimestamp": "0x6a2846e4",
          "transactionHash": "0x2ee624d85aa911c9a7d54a975266b77f7cb8a75810d312c963b791e8f35a1d1f",
          "transactionIndex": "0xa8",
          "logIndex": "0x180",
          "removed": false
        },
        {
          "address": "0x995b4cd6cc4bb7985b3869dc8edbd32fcd38a892",
          "topics": [
            "0xddf252ad1be2c89b69c2b068fc378daa952ba7f163c4a11628f55a4df523b3ef",
            "0x00000000000000000000000086a1a915d2a63f054220fca41e95ae437ed51e6b",
            "0x000000000000000000000000e03a1074c86cfedd5c142c4f04f1a1536e203543"
          ],
          "data": "0x000000000000000000000000000000000000000000000000296e1c9b33eb3dd4",
          "blockHash": "0xf6b54c292b4f300562fffe11032e215af1cb49d49f7db0df90b0d82d2ff5e7ad",
          "blockNumber": "0xa835cb",
          "blockTimestamp": "0x6a2846e4",
          "transactionHash": "0x2ee624d85aa911c9a7d54a975266b77f7cb8a75810d312c963b791e8f35a1d1f",
          "transactionIndex": "0xa8",
          "logIndex": "0x181",
          "removed": false
        },
        {
          "address": "0xe03a1074c86cfedd5c142c4f04f1a1536e203543",
          "topics": [
            "0xf208f4912782fd25c7f114ca3723a2d5dd6f3bcc3ac8db5af63baa85f711d5ec",
            "0x467d6551c1ac498475b01dd23cd73ce9a61de3fae5e00455e696cc55d5522818",
            "0x00000000000000000000000086a1a915d2a63f054220fca41e95ae437ed51e6b"
          ],
          "data": "0xffffffffffffffffffffffffffffffffffffffffffffffffffffffffffffffc4000000000000000000000000000000000000000000000000000000000000003cffffffffffffffffffffffffffffffffffffffffffffffc9ca36523a21600000000000000000000000000000000000000000000000000000000000000000dead",
          "blockHash": "0xf6b54c292b4f300562fffe11032e215af1cb49d49f7db0df90b0d82d2ff5e7ad",
          "blockNumber": "0xa835cb",
          "blockTimestamp": "0x6a2846e4",
          "transactionHash": "0x2ee624d85aa911c9a7d54a975266b77f7cb8a75810d312c963b791e8f35a1d1f",
          "transactionIndex": "0xa8",
          "logIndex": "0x182",
          "removed": false
        },
        {
          "address": "0x7ce8535d4fd28de2d929b03a7b6d9d6045f36872",
          "topics": [
            "0xddf252ad1be2c89b69c2b068fc378daa952ba7f163c4a11628f55a4df523b3ef",
            "0x000000000000000000000000e03a1074c86cfedd5c142c4f04f1a1536e203543",
            "0x00000000000000000000000086a1a915d2a63f054220fca41e95ae437ed51e6b"
          ],
          "data": "0x00000000000000000000000000000000000000000000000029b52a68cb059809",
          "blockHash": "0xf6b54c292b4f300562fffe11032e215af1cb49d49f7db0df90b0d82d2ff5e7ad",
          "blockNumber": "0xa835cb",
          "blockTimestamp": "0x6a2846e4",
          "transactionHash": "0x2ee624d85aa911c9a7d54a975266b77f7cb8a75810d312c963b791e8f35a1d1f",
          "transactionIndex": "0xa8",
          "logIndex": "0x183",
          "removed": false
        },
        {
          "address": "0x995b4cd6cc4bb7985b3869dc8edbd32fcd38a892",
          "topics": [
            "0xddf252ad1be2c89b69c2b068fc378daa952ba7f163c4a11628f55a4df523b3ef",
            "0x000000000000000000000000e03a1074c86cfedd5c142c4f04f1a1536e203543",
            "0x00000000000000000000000086a1a915d2a63f054220fca41e95ae437ed51e6b"
          ],
          "data": "0x000000000000000000000000000000000000000000000000296e1c9b33eb3dd3",
          "blockHash": "0xf6b54c292b4f300562fffe11032e215af1cb49d49f7db0df90b0d82d2ff5e7ad",
          "blockNumber": "0xa835cb",
          "blockTimestamp": "0x6a2846e4",
          "transactionHash": "0x2ee624d85aa911c9a7d54a975266b77f7cb8a75810d312c963b791e8f35a1d1f",
          "transactionIndex": "0xa8",
          "logIndex": "0x184",
          "removed": false
        },
        {
          "address": "0xca2f96f95c9e7a2109ecbd64bf80f7cf77d86ac8",
          "topics": [
            "0x86290bd4a7943ce8ba2fe5bb36ed642bb30abb788a3d3c1f13115107714caab5",
            "0x467d6551c1ac498475b01dd23cd73ce9a61de3fae5e00455e696cc55d5522818"
          ],
          "data": "0x00000000000000000000000000000000000000000000000000000000000000000000000000000000000000000000000000000000000000000000000000001b58",
          "blockHash": "0xf6b54c292b4f300562fffe11032e215af1cb49d49f7db0df90b0d82d2ff5e7ad",
          "blockNumber": "0xa835cb",
          "blockTimestamp": "0x6a2846e4",
          "transactionHash": "0x2ee624d85aa911c9a7d54a975266b77f7cb8a75810d312c963b791e8f35a1d1f",
          "transactionIndex": "0xa8",
          "logIndex": "0x185",
          "removed": false
        },
        {
          "address": "0xca2f96f95c9e7a2109ecbd64bf80f7cf77d86ac8",
          "topics": [
            "0x7ed908ff2e40b254ea911b86a8497222ab54394e5961796285735f1e6306179d",
            "0x0000000000000000000000007ce8535d4fd28de2d929b03a7b6d9d6045f36872"
          ],
          "data": "0x00000000000000000000000000000000000000000000000000027ca57357c000",
          "blockHash": "0xf6b54c292b4f300562fffe11032e215af1cb49d49f7db0df90b0d82d2ff5e7ad",
          "blockNumber": "0xa835cb",
          "blockTimestamp": "0x6a2846e4",
          "transactionHash": "0x2ee624d85aa911c9a7d54a975266b77f7cb8a75810d312c963b791e8f35a1d1f",
          "transactionIndex": "0xa8",
          "logIndex": "0x186",
          "removed": false
        },
        {
          "address": "0x7ce8535d4fd28de2d929b03a7b6d9d6045f36872",
          "topics": [
            "0xddf252ad1be2c89b69c2b068fc378daa952ba7f163c4a11628f55a4df523b3ef",
            "0x000000000000000000000000e03a1074c86cfedd5c142c4f04f1a1536e203543",
            "0x000000000000000000000000ca2f96f95c9e7a2109ecbd64bf80f7cf77d86ac8"
          ],
          "data": "0x00000000000000000000000000000000000000000000000000027ca57357c000",
          "blockHash": "0xf6b54c292b4f300562fffe11032e215af1cb49d49f7db0df90b0d82d2ff5e7ad",
          "blockNumber": "0xa835cb",
          "blockTimestamp": "0x6a2846e4",
          "transactionHash": "0x2ee624d85aa911c9a7d54a975266b77f7cb8a75810d312c963b791e8f35a1d1f",
          "transactionIndex": "0xa8",
          "logIndex": "0x187",
          "removed": false
        },
        {
          "address": "0xe03a1074c86cfedd5c142c4f04f1a1536e203543",
          "topics": [
            "0x40e9cecb9f5f1f1c5b9c97dec2917b7ee92e57ba5563708daca94dd84ad7112f",
            "0x467d6551c1ac498475b01dd23cd73ce9a61de3fae5e00455e696cc55d5522818",
            "0x00000000000000000000000086a1a915d2a63f054220fca41e95ae437ed51e6b"
          ],
          "data": "0xfffffffffffffffffffffffffffffffffffffffffffffffff221c5f1cbf3c0000000000000000000000000000000000000000000000000000dc1cf5ce0830ab10000000000000000000000000000000000000000ffbe60f3b3d8f2f80736f5bb00000000000000000000000000000000000000000000003635c9adc5dea00000ffffffffffffffffffffffffffffffffffffffffffffffffffffffffffffffeb0000000000000000000000000000000000000000000000000000000000001b58",
          "blockHash": "0xf6b54c292b4f300562fffe11032e215af1cb49d49f7db0df90b0d82d2ff5e7ad",
          "blockNumber": "0xa835cb",
          "blockTimestamp": "0x6a2846e4",
          "transactionHash": "0x2ee624d85aa911c9a7d54a975266b77f7cb8a75810d312c963b791e8f35a1d1f",
          "transactionIndex": "0xa8",
          "logIndex": "0x188",
          "removed": false
        },
        {
          "address": "0x7ce8535d4fd28de2d929b03a7b6d9d6045f36872",
          "topics": [
            "0xddf252ad1be2c89b69c2b068fc378daa952ba7f163c4a11628f55a4df523b3ef",
            "0x00000000000000000000000086a1a915d2a63f054220fca41e95ae437ed51e6b",
            "0x000000000000000000000000e03a1074c86cfedd5c142c4f04f1a1536e203543"
          ],
          "data": "0x0000000000000000000000000000000000000000000000000de0b6b3a7640000",
          "blockHash": "0xf6b54c292b4f300562fffe11032e215af1cb49d49f7db0df90b0d82d2ff5e7ad",
          "blockNumber": "0xa835cb",
          "blockTimestamp": "0x6a2846e4",
          "transactionHash": "0x2ee624d85aa911c9a7d54a975266b77f7cb8a75810d312c963b791e8f35a1d1f",
          "transactionIndex": "0xa8",
          "logIndex": "0x189",
          "removed": false
        },
        {
          "address": "0x995b4cd6cc4bb7985b3869dc8edbd32fcd38a892",
          "topics": [
            "0xddf252ad1be2c89b69c2b068fc378daa952ba7f163c4a11628f55a4df523b3ef",
            "0x000000000000000000000000e03a1074c86cfedd5c142c4f04f1a1536e203543",
            "0x00000000000000000000000086a1a915d2a63f054220fca41e95ae437ed51e6b"
          ],
          "data": "0x0000000000000000000000000000000000000000000000000dc1cf5ce0830ab1",
          "blockHash": "0xf6b54c292b4f300562fffe11032e215af1cb49d49f7db0df90b0d82d2ff5e7ad",
          "blockNumber": "0xa835cb",
          "blockTimestamp": "0x6a2846e4",
          "transactionHash": "0x2ee624d85aa911c9a7d54a975266b77f7cb8a75810d312c963b791e8f35a1d1f",
          "transactionIndex": "0xa8",
          "logIndex": "0x18a",
          "removed": false
        }
      ],
      "logsBloom": "0x00400000000000000000000000000000000000000000100000000008000000002000000000100000000400000000000000000100840000000000000000000000000000000000000001000008000000000000000000000060002000000000000000000000100000000000000080000001400000000000104000000010000000000000000005000000000010000000000000000000000000000000000000000000000004000000002000100040000000100000000400000000080000000000000000040002100004000000000000000000000000000000000000001000000004001100020000000000004000000000000004000000000000000040000100000040",
      "transactionHash": "0x2ee624d85aa911c9a7d54a975266b77f7cb8a75810d312c963b791e8f35a1d1f",
      "transactionIndex": "0xa8",
      "blockHash": "0xf6b54c292b4f300562fffe11032e215af1cb49d49f7db0df90b0d82d2ff5e7ad",
      "blockNumber": "0xa835cb",
      "gasUsed": "0x593ee",
      "effectiveGasPrice": "0x80356ca7",
      "from": "0xf5ac3902153cd6bf53e8e7474380c3b86e8afa37",
      "to": "0x86a1a915d2a63f054220fca41e95ae437ed51e6b",
      "contractAddress": null
    }
  ],
  "libraries": [],
  "pending": [],
  "returns": {},
  "timestamp": 1781024486128,
  "chain": 11155111,
  "commit": "1f0320c"
}